:03000000020B22CE
:0C0B2200787FE4F6D8FD758118020B699D
:100BAE00446F6F72206973204C6F636B65640045F0
:100BBE006E7465722050617373776F72643A005071
:100BCE00617373776F7264204D617463686564003E
:100BDE0057726F6E672050617373776F7264005037
:100BEE006C656173652054727920416761696E008E
:100BFE004F70656E696E6720446F6F722E2E2E00D9
:100C0E00436C6F73696E6720446F6F722E2E2E00C9
:080D20000608353433323100BE
:1009B400E4F5A07590FF120C9D7BFF7A0B79AE12C3
:1009C4000C4D7F647E00120C277F01120CC87F023D
:1009D400120CC87BFF7A0B79BD120C4D7FC0120C30
:1009E400C8E4F513F514120D158F15740E2514F8BB
:1009F400A6157F647E00120C270514E51470020509
:100A040013C39405E5136480948040DA7F01120CCB
:100A1400C87F02120CC878087C007D007B007A0035
:100A2400790E120997EF3395E04F7BFF701D7A0B17
:100A340079CD120C4D7FC87E00120C27120D047F55
:100A4400587E02120C27120C77802B7A0B79DE1257
:100A54000C4D120CDA7FC87E00120C277F01120C99
:100A6400C87F02120CC87BFF7A0B79ED120C4D7F04
:100A7400C87E00120C277F01120CC87F02120CC81A
:010A8400224F
:100C9D007F38120CC8120C237F01120CC8120C23C2
:100CAD007F80120CC8120C237F0E120CC87F027E9F
:040CBD0000020C27FE
:090C1E007F2A120CF27F027E0015
:100C2700E4FDFCC3ED9FEE6480F8EC6480985015FA
:100C3700E4FBFA0BBB00010ABA04F8BBFBF50DBDD8
:050C470000010C80DE3D
:010C4C002285
:070CC1007F01120CC87F0245
:100CC8008FA0C2B4C2B5D2B67F017E00120C27C273
:020CD800B62242
:100C4D008B168A178918AB16AA17A918120800FF58
:100C5D006017120CF27F0A7E00120C277401251802
:0A0C6D00F518E43517F51780DD22B5
:100CF2008FA0D2B4C2B5D2B67F017E00120C27C239
:020D0200B62217
:100CDA00900000D2977F647E00120C27C297A3E58A
:070CEA00826405458370ECF4
:010CF10022E0
:100D0400120CC17BFF7A0B79FE120C4DD2B0C2B12A
:010D140022BC
:100C7700120CC17BFF7A0C790E120C4DC2B0C2B1B7
:100C87007F147E00120C27C2B0D2B17FF40E120C73
:060C970027C2B0C2B12229
:0A0D15007F61BF6105120A8580F8B6
:010D1F0022B1
:100A8500D296D295D294C293C292C291C290C2908C
:100A9500D293D292D291209406120C1E7F3122203D
:100AA5009506120C1E7F3222209606120C1E7F33ED
:100AB50022C291D293D292D290209406120C1E7F1C
:100AC5003422209506120C1E7F3522209606120C24
:100AD5001E7F3622C292D293D291D29020940612D2
:100AE5000C1E7F3722209506120C1E7F3822209679
:100AF50006120C1E7F3922C293D292D291D2902037
:100B05009406120C1E7F2A22209506120C1E7F3099
:0D0B150022209606120C1E7F23227F6122F3
:100B2E000209B4E493A3F8E493A34003F68001F220
:100B3E0008DFF48029E493A3F85407240CC8C333C8
:100B4E00C4540F4420C8834004F456800146F6DF97
:100B5E00E4800B0102040810204080900D20E47EFA
:100B6E00019360BCA3FF543F30E509541FFEE4938C
:100B7E00A360010ECF54C025E060A840B8E493A353
:100B8E00FAE493A3F8E493A3C8C582C8CAC583CA7E
:100B9E00F0A3C8C582C8CAC583CADFE9DEE780BE36
:010D280000CA
:10080000BB010689828A83E0225002E722BBFE02F6
:09081000E32289828A83E4932229
:10081900E3F5F009E208B5F06D606B80F3E3F5F0FC
:1008290009E608B5F060605E80F387F009E608B56F
:10083900F054605280F487F009E208B5F048604648
:1008490080F488828C8387F009E0A3B5F03860369C
:1008590080F488828C8387F009E493A3B5F027603C
:100869002580F388828C83E3F5F009E0A3B5F016BF
:10087900601480F388828C83E3F5F009E493A3B5CF
:10088900F004600280F2020944808580E7808E804E
:10089900D2803C8015806C807E809B80B5808B8067
:1008A900A1804F8070803A02095089828A83ECFACC
:1008B900E493F5F0A3C8C582C8CCC583CCE493A35F
:1008C900C8C582C8CCC583CCB5F070606E80E1899B
:1008D900828A83E493F5F0A3E208B5F05E605C8058
:1008E900F289828A83E0F5F0A3E608B5F04D604B02
:1008F90080F389828A83E0F5F0A3E208B5F03C60D1
:100909003A80F389828A83E493F5F0A3E608B5F087
:100919002A602880F2805389828A83ECFAE493F56D
:10092900F0A3C8C582C8CCC583CCE0A3C8C582C81A
:10093900CCC583CCB5F004600280E27FFFB5F0023C
:100949000F2240027F012289828A83ECFAE0F5F0C6
:10095900A3C8C582C8CCC583CCE0A3C8C582C8CC0E
:10096900C583CCB5F0D560D380E389828A83ECFA5C
:10097900E0F5F0A3C8C582C8CCC583CCE493A3C86D
:10098900C582C8CCC583CCB5F0B160AF80E288F030
:10099900ED2402B4040050A3F582EB2402B4040050
:0B09A90050992323458223900892738D
:00000001FF
